{
  "_format": "hh-sol-artifact-1",
  "contractName": "RewardsContract",
  "sourceName": "contracts/RewardsContract.sol",
  "abi": [
    {
      "inputs": [
        {
          "internalType": "address",
          "name": "_rewardsToken",
          "type": "address"
        },
        {
          "internalType": "address",
          "name": "_priceFeed",
          "type": "address"
        }
      ],
      "stateMutability": "nonpayable",
      "type": "constructor"
    },
    {
      "inputs": [],
      "name": "ReentrancyGuardReentrantCall",
      "type": "error"
    },
    {
      "anonymous": false,
      "inputs": [
        {
          "indexed": true,
          "internalType": "address",
          "name": "user",
          "type": "address"
        },
        {
          "indexed": false,
          "internalType": "uint256",
          "name": "balance",
          "type": "uint256"
        }
      ],
      "name": "BalanceChecked",
      "type": "event"
    },
    {
      "anonymous": false,
      "inputs": [
        {
          "indexed": true,
          "internalType": "address",
          "name": "user",
          "type": "address"
        },
        {
          "indexed": false,
          "internalType": "uint256",
          "name": "points",
          "type": "uint256"
        },
        {
          "indexed": false,
          "internalType": "uint256",
          "name": "tokens",
          "type": "uint256"
        }
      ],
      "name": "PointsRedeemed",
      "type": "event"
    },
    {
      "anonymous": false,
      "inputs": [
        {
          "indexed": true,
          "internalType": "address",
          "name": "user",
          "type": "address"
        },
        {
          "indexed": false,
          "internalType": "uint256",
          "name": "points",
          "type": "uint256"
        }
      ],
      "name": "PointsRewarded",
      "type": "event"
    },
    {
      "inputs": [
        {
          "internalType": "address",
          "name": "user",
          "type": "address"
        }
      ],
      "name": "getBalance",
      "outputs": [
        {
          "internalType": "uint256",
          "name": "balance",
          "type": "uint256"
        }
      ],
      "stateMutability": "nonpayable",
      "type": "function"
    },
    {
      "inputs": [],
      "name": "priceFeed",
      "outputs": [
        {
          "internalType": "contract AggregatorV3Interface",
          "name": "",
          "type": "address"
        }
      ],
      "stateMutability": "view",
      "type": "function"
    },
    {
      "inputs": [
        {
          "internalType": "uint256",
          "name": "points",
          "type": "uint256"
        }
      ],
      "name": "redeemPoints",
      "outputs": [],
      "stateMutability": "nonpayable",
      "type": "function"
    },
    {
      "inputs": [
        {
          "internalType": "address",
          "name": "user",
          "type": "address"
        },
        {
          "internalType": "uint256",
          "name": "points",
          "type": "uint256"
        }
      ],
      "name": "rewardPoints",
      "outputs": [],
      "stateMutability": "nonpayable",
      "type": "function"
    },
    {
      "inputs": [],
      "name": "rewardsToken",
      "outputs": [
        {
          "internalType": "contract IERC20",
          "name": "",
          "type": "address"
        }
      ],
      "stateMutability": "view",
      "type": "function"
    },
    {
      "inputs": [
        {
          "internalType": "address",
          "name": "",
          "type": "address"
        }
      ],
      "name": "userPoints",
      "outputs": [
        {
          "internalType": "uint256",
          "name": "",
          "type": "uint256"
        }
      ],
      "stateMutability": "view",
      "type": "function"
    }
  ],
  "bytecode": "0x608060405234801561001057600080fd5b506040516117f93803806117f983398181016040528101906100329190610204565b6001600081905550600073ffffffffffffffffffffffffffffffffffffffff168273ffffffffffffffffffffffffffffffffffffffff16036100a9576040517f08c379a00000000000000000000000000000000000000000000000000000000081526004016100a0906102a1565b60405180910390fd5b600073ffffffffffffffffffffffffffffffffffffffff168173ffffffffffffffffffffffffffffffffffffffff1603610118576040517f08c379a000000000000000000000000000000000000000000000000000000000815260040161010f9061030d565b60405180910390fd5b81600160006101000a81548173ffffffffffffffffffffffffffffffffffffffff021916908373ffffffffffffffffffffffffffffffffffffffff16021790555080600260006101000a81548173ffffffffffffffffffffffffffffffffffffffff021916908373ffffffffffffffffffffffffffffffffffffffff160217905550505061032d565b600080fd5b600073ffffffffffffffffffffffffffffffffffffffff82169050919050565b60006101d1826101a6565b9050919050565b6101e1816101c6565b81146101ec57600080fd5b50565b6000815190506101fe816101d8565b92915050565b6000806040838503121561021b5761021a6101a1565b5b6000610229858286016101ef565b925050602061023a858286016101ef565b9150509250929050565b600082825260208201905092915050565b7f496e76616c696420746f6b656e20616464726573730000000000000000000000600082015250565b600061028b601583610244565b915061029682610255565b602082019050919050565b600060208201905081810360008301526102ba8161027e565b9050919050565b7f496e76616c696420707269636520666565642061646472657373000000000000600082015250565b60006102f7601a83610244565b9150610302826102c1565b602082019050919050565b60006020820190508181036000830152610326816102ea565b9050919050565b6114bd8061033c6000396000f3fe608060405234801561001057600080fd5b50600436106100625760003560e01c80636a7dfd1a14610067578063741bef1a14610083578063d1af0c7d146100a1578063e92e92e7146100bf578063f50ddbc7146100db578063f8b2cb4f1461010b575b600080fd5b610081600480360381019061007c9190610acf565b61013b565b005b61008b610304565b6040516100989190610b6e565b60405180910390f35b6100a961032a565b6040516100b69190610baa565b60405180910390f35b6100d960048036038101906100d49190610bc5565b610350565b005b6100f560048036038101906100f09190610bf2565b61074b565b6040516101029190610c2e565b60405180910390f35b61012560048036038101906101209190610bf2565b610763565b6040516101329190610c2e565b60405180910390f35b600073ffffffffffffffffffffffffffffffffffffffff163373ffffffffffffffffffffffffffffffffffffffff16036101aa576040517f08c379a00000000000000000000000000000000000000000000000000000000081526004016101a190610ca6565b60405180910390fd5b600073ffffffffffffffffffffffffffffffffffffffff168273ffffffffffffffffffffffffffffffffffffffff1603610219576040517f08c379a000000000000000000000000000000000000000000000000000000000815260040161021090610d12565b60405180910390fd5b6000811161025c576040517f08c379a000000000000000000000000000000000000000000000000000000000815260040161025390610d7e565b60405180910390fd5b80600360008473ffffffffffffffffffffffffffffffffffffffff1673ffffffffffffffffffffffffffffffffffffffff16815260200190815260200160002060008282546102ab9190610dcd565b925050819055508173ffffffffffffffffffffffffffffffffffffffff167f86fa8f38ea6968563224262d313b8cfb6cc8997659ed992e5e194f44322e2b13826040516102f89190610c2e565b60405180910390a25050565b600260009054906101000a900473ffffffffffffffffffffffffffffffffffffffff1681565b600160009054906101000a900473ffffffffffffffffffffffffffffffffffffffff1681565b6103586108d7565b600073ffffffffffffffffffffffffffffffffffffffff163373ffffffffffffffffffffffffffffffffffffffff16036103c7576040517f08c379a00000000000000000000000000000000000000000000000000000000081526004016103be90610ca6565b60405180910390fd5b6000811161040a576040517f08c379a000000000000000000000000000000000000000000000000000000000815260040161040190610d7e565b60405180910390fd5b80600360003373ffffffffffffffffffffffffffffffffffffffff1673ffffffffffffffffffffffffffffffffffffffff16815260200190815260200160002054101561048c576040517f08c379a000000000000000000000000000000000000000000000000000000000815260040161048390610e4d565b60405180910390fd5b60006104978261091d565b9050600081116104dc576040517f08c379a00000000000000000000000000000000000000000000000000000000081526004016104d390610eb9565b60405180910390fd5b80600160009054906101000a900473ffffffffffffffffffffffffffffffffffffffff1673ffffffffffffffffffffffffffffffffffffffff166370a08231306040518263ffffffff1660e01b81526004016105389190610ee8565b602060405180830381865afa158015610555573d6000803e3d6000fd5b505050506040513d601f19601f820116820180604052508101906105799190610f18565b10156105ba576040517f08c379a00000000000000000000000000000000000000000000000000000000081526004016105b190610f91565b60405180910390fd5b81600360003373ffffffffffffffffffffffffffffffffffffffff1673ffffffffffffffffffffffffffffffffffffffff16815260200190815260200160002060008282546106099190610fb1565b92505081905550600160009054906101000a900473ffffffffffffffffffffffffffffffffffffffff1673ffffffffffffffffffffffffffffffffffffffff1663a9059cbb33836040518363ffffffff1660e01b815260040161066d929190610fe5565b6020604051808303816000875af115801561068c573d6000803e3d6000fd5b505050506040513d601f19601f820116820180604052508101906106b09190611046565b6106ef576040517f08c379a00000000000000000000000000000000000000000000000000000000081526004016106e6906110bf565b60405180910390fd5b3373ffffffffffffffffffffffffffffffffffffffff167f8489cc43a42dbf9d33259b91b6c919c19644ac3b135272570f33f989637a110283836040516107379291906110df565b60405180910390a250610748610a2c565b50565b60036020528060005260406000206000915090505481565b60008073ffffffffffffffffffffffffffffffffffffffff163373ffffffffffffffffffffffffffffffffffffffff16036107d3576040517f08c379a00000000000000000000000000000000000000000000000000000000081526004016107ca90610ca6565b60405180910390fd5b600073ffffffffffffffffffffffffffffffffffffffff168273ffffffffffffffffffffffffffffffffffffffff1603610842576040517f08c379a000000000000000000000000000000000000000000000000000000000815260040161083990610d12565b60405180910390fd5b600360008373ffffffffffffffffffffffffffffffffffffffff1673ffffffffffffffffffffffffffffffffffffffff1681526020019081526020016000205490508173ffffffffffffffffffffffffffffffffffffffff167f99fd1b4b1c3d2adfe8295d40a886856c6fa50e4a821d330c781d67c582bc3d99826040516108ca9190610c2e565b60405180910390a2919050565b600260005403610913576040517f3ee5aeb500000000000000000000000000000000000000000000000000000000815260040160405180910390fd5b6002600081905550565b600080600260009054906101000a900473ffffffffffffffffffffffffffffffffffffffff1673ffffffffffffffffffffffffffffffffffffffff1663feaf968c6040518163ffffffff1660e01b815260040160a060405180830381865afa15801561098d573d6000803e3d6000fd5b505050506040513d601f19601f820116820180604052508101906109b19190611180565b505050915050600081136109fa576040517f08c379a00000000000000000000000000000000000000000000000000000000081526004016109f190611247565b60405180910390fd5b6000816008600a610a0b919061139a565b85610a1691906113e5565b610a209190611456565b90508092505050919050565b6001600081905550565b600080fd5b600073ffffffffffffffffffffffffffffffffffffffff82169050919050565b6000610a6682610a3b565b9050919050565b610a7681610a5b565b8114610a8157600080fd5b50565b600081359050610a9381610a6d565b92915050565b6000819050919050565b610aac81610a99565b8114610ab757600080fd5b50565b600081359050610ac981610aa3565b92915050565b60008060408385031215610ae657610ae5610a36565b5b6000610af485828601610a84565b9250506020610b0585828601610aba565b9150509250929050565b6000819050919050565b6000610b34610b2f610b2a84610a3b565b610b0f565b610a3b565b9050919050565b6000610b4682610b19565b9050919050565b6000610b5882610b3b565b9050919050565b610b6881610b4d565b82525050565b6000602082019050610b836000830184610b5f565b92915050565b6000610b9482610b3b565b9050919050565b610ba481610b89565b82525050565b6000602082019050610bbf6000830184610b9b565b92915050565b600060208284031215610bdb57610bda610a36565b5b6000610be984828501610aba565b91505092915050565b600060208284031215610c0857610c07610a36565b5b6000610c1684828501610a84565b91505092915050565b610c2881610a99565b82525050565b6000602082019050610c436000830184610c1f565b92915050565b600082825260208201905092915050565b7f496e76616c69642073656e646572000000000000000000000000000000000000600082015250565b6000610c90600e83610c49565b9150610c9b82610c5a565b602082019050919050565b60006020820190508181036000830152610cbf81610c83565b9050919050565b7f496e76616c696420757365722061646472657373000000000000000000000000600082015250565b6000610cfc601483610c49565b9150610d0782610cc6565b602082019050919050565b60006020820190508181036000830152610d2b81610cef565b9050919050565b7f506f696e7473206d7573742062652067726561746572207468616e2030000000600082015250565b6000610d68601d83610c49565b9150610d7382610d32565b602082019050919050565b60006020820190508181036000830152610d9781610d5b565b9050919050565b7f4e487b7100000000000000000000000000000000000000000000000000000000600052601160045260246000fd5b6000610dd882610a99565b9150610de383610a99565b9250828201905080821115610dfb57610dfa610d9e565b5b92915050565b7f496e73756666696369656e7420706f696e74732062616c616e63650000000000600082015250565b6000610e37601b83610c49565b9150610e4282610e01565b602082019050919050565b60006020820190508181036000830152610e6681610e2a565b9050919050565b7f546f6b656e20616d6f756e7420746f6f20736d616c6c00000000000000000000600082015250565b6000610ea3601683610c49565b9150610eae82610e6d565b602082019050919050565b60006020820190508181036000830152610ed281610e96565b9050919050565b610ee281610a5b565b82525050565b6000602082019050610efd6000830184610ed9565b92915050565b600081519050610f1281610aa3565b92915050565b600060208284031215610f2e57610f2d610a36565b5b6000610f3c84828501610f03565b91505092915050565b7f496e73756666696369656e7420636f6e74726163742062616c616e6365000000600082015250565b6000610f7b601d83610c49565b9150610f8682610f45565b602082019050919050565b60006020820190508181036000830152610faa81610f6e565b9050919050565b6000610fbc82610a99565b9150610fc783610a99565b9250828203905081811115610fdf57610fde610d9e565b5b92915050565b6000604082019050610ffa6000830185610ed9565b6110076020830184610c1f565b9392505050565b60008115159050919050565b6110238161100e565b811461102e57600080fd5b50565b6000815190506110408161101a565b92915050565b60006020828403121561105c5761105b610a36565b5b600061106a84828501611031565b91505092915050565b7f546f6b656e207472616e73666572206661696c65640000000000000000000000600082015250565b60006110a9601583610c49565b91506110b482611073565b602082019050919050565b600060208201905081810360008301526110d88161109c565b9050919050565b60006040820190506110f46000830185610c1f565b6111016020830184610c1f565b9392505050565b600069ffffffffffffffffffff82169050919050565b61112781611108565b811461113257600080fd5b50565b6000815190506111448161111e565b92915050565b6000819050919050565b61115d8161114a565b811461116857600080fd5b50565b60008151905061117a81611154565b92915050565b600080600080600060a0868803121561119c5761119b610a36565b5b60006111aa88828901611135565b95505060206111bb8882890161116b565b94505060406111cc88828901610f03565b93505060606111dd88828901610f03565b92505060806111ee88828901611135565b9150509295509295909350565b7f496e76616c6964207072696365206665656420726573706f6e73650000000000600082015250565b6000611231601b83610c49565b915061123c826111fb565b602082019050919050565b6000602082019050818103600083015261126081611224565b9050919050565b60008160011c9050919050565b6000808291508390505b60018511156112be5780860481111561129a57611299610d9e565b5b60018516156112a95780820291505b80810290506112b785611267565b945061127e565b94509492505050565b6000826112d75760019050611393565b816112e55760009050611393565b81600181146112fb576002811461130557611334565b6001915050611393565b60ff84111561131757611316610d9e565b5b8360020a91508482111561132e5761132d610d9e565b5b50611393565b5060208310610133831016604e8410600b84101617156113695782820a90508381111561136457611363610d9e565b5b611393565b6113768484846001611274565b9250905081840481111561138d5761138c610d9e565b5b81810290505b9392505050565b60006113a582610a99565b91506113b083610a99565b92506113dd7fffffffffffffffffffffffffffffffffffffffffffffffffffffffffffffffff84846112c7565b905092915050565b60006113f082610a99565b91506113fb83610a99565b925082820261140981610a99565b915082820484148315176114205761141f610d9e565b5b5092915050565b7f4e487b7100000000000000000000000000000000000000000000000000000000600052601260045260246000fd5b600061146182610a99565b915061146c83610a99565b92508261147c5761147b611427565b5b82820490509291505056fea264697066735822122043644943d9852e0a5321d0686a7c4cadc114773951a1b46722f9685991c37ce564736f6c634300081a0033",
  "linkReferences": {},
  "deployedLinkReferences": {}
}